{"contracts/SoybeanTrade.sol":{"SoybeanTrade":{"abi":[{"inputs":[],"stateMutability":"nonpayable","type":"constructor"},{"anonymous":false,"inputs":[{"indexed":false,"internalType":"address","name":"approver","type":"address"},{"indexed":false,"internalType":"uint256","name":"amount","type":"uint256"}],"name":"TransactionApproved","type":"event"},{"anonymous":false,"inputs":[{"indexed":false,"internalType":"address","name":"seller","type":"address"},{"indexed":false,"internalType":"address","name":"buyer","type":"address"},{"indexed":false,"internalType":"uint256","name":"amount","type":"uint256"}],"name":"TransactionExecuted","type":"event"},{"anonymous":false,"inputs":[{"indexed":false,"internalType":"address","name":"seller","type":"address"},{"indexed":false,"internalType":"address","name":"buyer","type":"address"},{"indexed":false,"internalType":"uint256","name":"amount","type":"uint256"}],"name":"TransactionInitiated","type":"event"},{"inputs":[],"name":"amount","outputs":[{"internalType":"uint256","name":"","type":"uint256"}],"stateMutability":"view","type":"function"},{"inputs":[],"name":"approveTransaction","outputs":[],"stateMutability":"nonpayable","type":"function"},{"inputs":[],"name":"buyer","outputs":[{"internalType":"address","name":"","type":"address"}],"stateMutability":"view","type":"function"},{"inputs":[],"name":"confirmTransaction","outputs":[],"stateMutability":"nonpayable","type":"function"},{"inputs":[],"name":"getIsBuyerConfirmed","outputs":[{"internalType":"bool","name":"","type":"bool"}],"stateMutability":"view","type":"function"},{"inputs":[],"name":"getIsSellerApproved","outputs":[{"internalType":"bool","name":"","type":"bool"}],"stateMutability":"view","type":"function"},{"inputs":[{"internalType":"address","name":"_buyer","type":"address"},{"internalType":"uint256","name":"_amount","type":"uint256"}],"name":"initiateTransaction","outputs":[],"stateMutability":"nonpayable","type":"function"},{"inputs":[],"name":"isApprovedBySeller","outputs":[{"internalType":"bool","name":"","type":"bool"}],"stateMutability":"view","type":"function"},{"inputs":[],"name":"isBuyerConfirmed","outputs":[{"internalType":"bool","name":"","type":"bool"}],"stateMutability":"view","type":"function"},{"inputs":[],"name":"seller","outputs":[{"internalType":"address","name":"","type":"address"}],"stateMutability":"view","type":"function"},{"stateMutability":"payable","type":"receive"}],"evm":{"bytecode":{"linkReferences":{},"object":"60806040526003805461ffff1916905534801561001b57600080fd5b50600080546001600160a01b031916331790556108408061003d6000396000f3fe6080604052600436106100955760003560e01c8063c3fa3acf11610059578063c3fa3acf1461013c578063c7a6c4541461015c578063e6fb768d14610171578063f3f0f9a414610186578063f5c5039b1461019b5761009c565b806308551a53146100a157806330ebc2d1146100cc57806333b7a674146100ee5780637150d8ae14610105578063aa8c217c1461011a5761009c565b3661009c57005b600080fd5b3480156100ad57600080fd5b506100b66101b0565b6040516100c39190610570565b60405180910390f35b3480156100d857600080fd5b506100e16101bf565b6040516100c391906105c1565b3480156100fa57600080fd5b506101036101cd565b005b34801561011157600080fd5b506100b66102a1565b34801561012657600080fd5b5061012f6102b0565b6040516100c39190610801565b34801561014857600080fd5b5061010361015736600461053a565b6102b6565b34801561016857600080fd5b50610103610391565b34801561017d57600080fd5b506100e1610413565b34801561019257600080fd5b506100e1610421565b3480156101a757600080fd5b506100e161042a565b6000546001600160a01b031681565b600354610100900460ff1690565b6000546001600160a01b031633146102005760405162461bcd60e51b81526004016101f790610685565b60405180910390fd5b60035460ff166102225760405162461bcd60e51b81526004016101f79061076a565b6003805461ff0019166101001790556000546002546040517f7b19c08b12f940ea76949b68d355070966056a862ad2c1aa6676ecbcc9538a6192610271926001600160a01b03909116916105a8565b60405180910390a160035460ff1680156102925750600354610100900460ff165b1561029f5761029f610433565b565b6001546001600160a01b031681565b60025481565b6000546001600160a01b031633146102e05760405162461bcd60e51b81526004016101f790610603565b6001600160a01b0382166103065760405162461bcd60e51b81526004016101f79061064e565b600081116103265760405162461bcd60e51b81526004016101f7906105cc565b600180546001600160a01b0319166001600160a01b03848116919091179182905560028390556000546040517f09ff2302f4abda8e8643155ee4bda3d566a5eacf743348474c69bff314d9a10093610385939283169216908590610584565b60405180910390a15050565b6001546001600160a01b031633146103bb5760405162461bcd60e51b81526004016101f79061071c565b6003805460ff19166001908117909155546002546040517f7b19c08b12f940ea76949b68d355070966056a862ad2c1aa6676ecbcc9538a6192610409926001600160a01b03909116916105a8565b60405180910390a1565b600354610100900460ff1681565b60035460ff1681565b60035460ff1690565b60035460ff16801561044c5750600354610100900460ff165b6104685760405162461bcd60e51b81526004016101f7906106d0565b60025447101561048a5760405162461bcd60e51b81526004016101f7906107b5565b6001546002546040516001600160a01b039092169181156108fc0291906000818181858888f193505050501580156104c6573d6000803e3d6000fd5b506000546001546002546040517f508f3afa87f72dce865a2321107666b28ac822c23a8c0555fbeb3424cf3de5639361050d936001600160a01b0391821693911691610584565b60405180910390a161029f600180546001600160a01b031916905560006002556003805461ffff19169055565b6000806040838503121561054c578182fd5b82356001600160a01b0381168114610562578283fd5b946020939093013593505050565b6001600160a01b0391909116815260200190565b6001600160a01b039384168152919092166020820152604081019190915260600190565b6001600160a01b03929092168252602082015260400190565b901515815260200190565b6020808252601d908201527f56616c6f72206465766520736572206d61696f7220717565207a65726f000000604082015260600190565b6020808252602b908201527f536f6d656e7465206f2076656e6465646f7220706f646520696e69636961722060408201526a61207472616e736163616f60a81b606082015260800190565b6020808252601e908201527f456e64657265636f20646f20636f6d707261646f7220696e76616c69646f0000604082015260600190565b6020808252602b908201527f536f6d656e7465206f2076656e6465646f7220706f6465206170726f7661722060408201526a61207472616e736163616f60a81b606082015260800190565b6020808252602c908201527f416d6261732061732070617274657320707265636973616d206170726f76617260408201526b2061207472616e736163616f60a01b606082015260800190565b6020808252602e908201527f536f6d656e7465206f20636f6d707261646f7220706f646520636f6e6669726d60408201526d61722061207472616e736163616f60901b606082015260800190565b6020808252602b908201527f4f20636f6d707261646f722061696e6461206e616f20636f6e6669726d6f752060408201526a61207472616e736163616f60a81b606082015260800190565b6020808252602c908201527f53616c646f20696e737566696369656e74652070617261207265616c697a617260408201526b2061207472616e736163616f60a01b606082015260800190565b9081526020019056fea2646970667358221220cd9aacd73b111a80c14ab8011b03e636fee22eb5528724aee01305c6c4a0859464736f6c63430008000033","opcodes":"PUSH1 0x80 PUSH1 0x40 MSTORE PUSH1 0x3 DUP1 SLOAD PUSH2 0xFFFF NOT AND SWAP1 SSTORE CALLVALUE DUP1 ISZERO PUSH2 0x1B JUMPI PUSH1 0x0 DUP1 REVERT JUMPDEST POP PUSH1 0x0 DUP1 SLOAD PUSH1 0x1 PUSH1 0x1 PUSH1 0xA0 SHL SUB NOT AND CALLER OR SWAP1 SSTORE PUSH2 0x840 DUP1 PUSH2 0x3D PUSH1 0x0 CODECOPY PUSH1 0x0 RETURN INVALID PUSH1 0x80 PUSH1 0x40 MSTORE PUSH1 0x4 CALLDATASIZE LT PUSH2 0x95 JUMPI PUSH1 0x0 CALLDATALOAD PUSH1 0xE0 SHR DUP1 PUSH4 0xC3FA3ACF GT PUSH2 0x59 JUMPI DUP1 PUSH4 0xC3FA3ACF EQ PUSH2 0x13C JUMPI DUP1 PUSH4 0xC7A6C454 EQ PUSH2 0x15C JUMPI DUP1 PUSH4 0xE6FB768D EQ PUSH2 0x171 JUMPI DUP1 PUSH4 0xF3F0F9A4 EQ PUSH2 0x186 JUMPI DUP1 PUSH4 0xF5C5039B EQ PUSH2 0x19B JUMPI PUSH2 0x9C JUMP JUMPDEST DUP1 PUSH4 0x8551A53 EQ PUSH2 0xA1 JUMPI DUP1 PUSH4 0x30EBC2D1 EQ PUSH2 0xCC JUMPI DUP1 PUSH4 0x33B7A674 EQ PUSH2 0xEE JUMPI DUP1 PUSH4 0x7150D8AE EQ PUSH2 0x105 JUMPI DUP1 PUSH4 0xAA8C217C EQ PUSH2 0x11A JUMPI PUSH2 0x9C JUMP JUMPDEST CALLDATASIZE PUSH2 0x9C JUMPI STOP JUMPDEST PUSH1 0x0 DUP1 REVERT JUMPDEST CALLVALUE DUP1 ISZERO PUSH2 0xAD JUMPI PUSH1 0x0 DUP1 REVERT JUMPDEST POP PUSH2 0xB6 PUSH2 0x1B0 JUMP JUMPDEST PUSH1 0x40 MLOAD PUSH2 0xC3 SWAP2 SWAP1 PUSH2 0x570 JUMP JUMPDEST PUSH1 0x40 MLOAD DUP1 SWAP2 SUB SWAP1 RETURN JUMPDEST CALLVALUE DUP1 ISZERO PUSH2 0xD8 JUMPI PUSH1 0x0 DUP1 REVERT JUMPDEST POP PUSH2 0xE1 PUSH2 0x1BF JUMP JUMPDEST PUSH1 0x40 MLOAD PUSH2 0xC3 SWAP2 SWAP1 PUSH2 0x5C1 JUMP JUMPDEST CALLVALUE DUP1 ISZERO PUSH2 0xFA JUMPI PUSH1 0x0 DUP1 REVERT JUMPDEST POP PUSH2 0x103 PUSH2 0x1CD JUMP JUMPDEST STOP JUMPDEST CALLVALUE DUP1 ISZERO PUSH2 0x111 JUMPI PUSH1 0x0 DUP1 REVERT JUMPDEST POP PUSH2 0xB6 PUSH2 0x2A1 JUMP JUMPDEST CALLVALUE DUP1 ISZERO PUSH2 0x126 JUMPI PUSH1 0x0 DUP1 REVERT JUMPDEST POP PUSH2 0x12F PUSH2 0x2B0 JUMP JUMPDEST PUSH1 0x40 MLOAD PUSH2 0xC3 SWAP2 SWAP1 PUSH2 0x801 JUMP JUMPDEST CALLVALUE DUP1 ISZERO PUSH2 0x148 JUMPI PUSH1 0x0 DUP1 REVERT JUMPDEST POP PUSH2 0x103 PUSH2 0x157 CALLDATASIZE PUSH1 0x4 PUSH2 0x53A JUMP JUMPDEST PUSH2 0x2B6 JUMP JUMPDEST CALLVALUE DUP1 ISZERO PUSH2 0x168 JUMPI PUSH1 0x0 DUP1 REVERT JUMPDEST POP PUSH2 0x103 PUSH2 0x391 JUMP JUMPDEST CALLVALUE DUP1 ISZERO PUSH2 0x17D JUMPI PUSH1 0x0 DUP1 REVERT JUMPDEST POP PUSH2 0xE1 PUSH2 0x413 JUMP JUMPDEST CALLVALUE DUP1 ISZERO PUSH2 0x192 JUMPI PUSH1 0x0 DUP1 REVERT JUMPDEST POP PUSH2 0xE1 PUSH2 0x421 JUMP JUMPDEST CALLVALUE DUP1 ISZERO PUSH2 0x1A7 JUMPI PUSH1 0x0 DUP1 REVERT JUMPDEST POP PUSH2 0xE1 PUSH2 0x42A JUMP JUMPDEST PUSH1 0x0 SLOAD PUSH1 0x1 PUSH1 0x1 PUSH1 0xA0 SHL SUB AND DUP2 JUMP JUMPDEST PUSH1 0x3 SLOAD PUSH2 0x100 SWAP1 DIV PUSH1 0xFF AND SWAP1 JUMP JUMPDEST PUSH1 0x0 SLOAD PUSH1 0x1 PUSH1 0x1 PUSH1 0xA0 SHL SUB AND CALLER EQ PUSH2 0x200 JUMPI PUSH1 0x40 MLOAD PUSH3 0x461BCD PUSH1 0xE5 SHL DUP2 MSTORE PUSH1 0x4 ADD PUSH2 0x1F7 SWAP1 PUSH2 0x685 JUMP JUMPDEST PUSH1 0x40 MLOAD DUP1 SWAP2 SUB SWAP1 REVERT JUMPDEST PUSH1 0x3 SLOAD PUSH1 0xFF AND PUSH2 0x222 JUMPI PUSH1 0x40 MLOAD PUSH3 0x461BCD PUSH1 0xE5 SHL DUP2 MSTORE PUSH1 0x4 ADD PUSH2 0x1F7 SWAP1 PUSH2 0x76A JUMP JUMPDEST PUSH1 0x3 DUP1 SLOAD PUSH2 0xFF00 NOT AND PUSH2 0x100 OR SWAP1 SSTORE PUSH1 0x0 SLOAD PUSH1 0x2 SLOAD PUSH1 0x40 MLOAD PUSH32 0x7B19C08B12F940EA76949B68D355070966056A862AD2C1AA6676ECBCC9538A61 SWAP3 PUSH2 0x271 SWAP3 PUSH1 0x1 PUSH1 0x1 PUSH1 0xA0 SHL SUB SWAP1 SWAP2 AND SWAP2 PUSH2 0x5A8 JUMP JUMPDEST PUSH1 0x40 MLOAD DUP1 SWAP2 SUB SWAP1 LOG1 PUSH1 0x3 SLOAD PUSH1 0xFF AND DUP1 ISZERO PUSH2 0x292 JUMPI POP PUSH1 0x3 SLOAD PUSH2 0x100 SWAP1 DIV PUSH1 0xFF AND JUMPDEST ISZERO PUSH2 0x29F JUMPI PUSH2 0x29F PUSH2 0x433 JUMP JUMPDEST JUMP JUMPDEST PUSH1 0x1 SLOAD PUSH1 0x1 PUSH1 0x1 PUSH1 0xA0 SHL SUB AND DUP2 JUMP JUMPDEST PUSH1 0x2 SLOAD DUP2 JUMP JUMPDEST PUSH1 0x0 SLOAD PUSH1 0x1 PUSH1 0x1 PUSH1 0xA0 SHL SUB AND CALLER EQ PUSH2 0x2E0 JUMPI PUSH1 0x40 MLOAD PUSH3 0x461BCD PUSH1 0xE5 SHL DUP2 MSTORE PUSH1 0x4 ADD PUSH2 0x1F7 SWAP1 PUSH2 0x603 JUMP JUMPDEST PUSH1 0x1 PUSH1 0x1 PUSH1 0xA0 SHL SUB DUP3 AND PUSH2 0x306 JUMPI PUSH1 0x40 MLOAD PUSH3 0x461BCD PUSH1 0xE5 SHL DUP2 MSTORE PUSH1 0x4 ADD PUSH2 0x1F7 SWAP1 PUSH2 0x64E JUMP JUMPDEST PUSH1 0x0 DUP2 GT PUSH2 0x326 JUMPI PUSH1 0x40 MLOAD PUSH3 0x461BCD PUSH1 0xE5 SHL DUP2 MSTORE PUSH1 0x4 ADD PUSH2 0x1F7 SWAP1 PUSH2 0x5CC JUMP JUMPDEST PUSH1 0x1 DUP1 SLOAD PUSH1 0x1 PUSH1 0x1 PUSH1 0xA0 SHL SUB NOT AND PUSH1 0x1 PUSH1 0x1 PUSH1 0xA0 SHL SUB DUP5 DUP2 AND SWAP2 SWAP1 SWAP2 OR SWAP2 DUP3 SWAP1 SSTORE PUSH1 0x2 DUP4 SWAP1 SSTORE PUSH1 0x0 SLOAD PUSH1 0x40 MLOAD PUSH32 0x9FF2302F4ABDA8E8643155EE4BDA3D566A5EACF743348474C69BFF314D9A100 SWAP4 PUSH2 0x385 SWAP4 SWAP3 DUP4 AND SWAP3 AND SWAP1 DUP6 SWAP1 PUSH2 0x584 JUMP JUMPDEST PUSH1 0x40 MLOAD DUP1 SWAP2 SUB SWAP1 LOG1 POP POP JUMP JUMPDEST PUSH1 0x1 SLOAD PUSH1 0x1 PUSH1 0x1 PUSH1 0xA0 SHL SUB AND CALLER EQ PUSH2 0x3BB JUMPI PUSH1 0x40 MLOAD PUSH3 0x461BCD PUSH1 0xE5 SHL DUP2 MSTORE PUSH1 0x4 ADD PUSH2 0x1F7 SWAP1 PUSH2 0x71C JUMP JUMPDEST PUSH1 0x3 DUP1 SLOAD PUSH1 0xFF NOT AND PUSH1 0x1 SWAP1 DUP2 OR SWAP1 SWAP2 SSTORE SLOAD PUSH1 0x2 SLOAD PUSH1 0x40 MLOAD PUSH32 0x7B19C08B12F940EA76949B68D355070966056A862AD2C1AA6676ECBCC9538A61 SWAP3 PUSH2 0x409 SWAP3 PUSH1 0x1 PUSH1 0x1 PUSH1 0xA0 SHL SUB SWAP1 SWAP2 AND SWAP2 PUSH2 0x5A8 JUMP JUMPDEST PUSH1 0x40 MLOAD DUP1 SWAP2 SUB SWAP1 LOG1 JUMP JUMPDEST PUSH1 0x3 SLOAD PUSH2 0x100 SWAP1 DIV PUSH1 0xFF AND DUP2 JUMP JUMPDEST PUSH1 0x3 SLOAD PUSH1 0xFF AND DUP2 JUMP JUMPDEST PUSH1 0x3 SLOAD PUSH1 0xFF AND SWAP1 JUMP JUMPDEST PUSH1 0x3 SLOAD PUSH1 0xFF AND DUP1 ISZERO PUSH2 0x44C JUMPI POP PUSH1 0x3 SLOAD PUSH2 0x100 SWAP1 DIV PUSH1 0xFF AND JUMPDEST PUSH2 0x468 JUMPI PUSH1 0x40 MLOAD PUSH3 0x461BCD PUSH1 0xE5 SHL DUP2 MSTORE PUSH1 0x4 ADD PUSH2 0x1F7 SWAP1 PUSH2 0x6D0 JUMP JUMPDEST PUSH1 0x2 SLOAD SELFBALANCE LT ISZERO PUSH2 0x48A JUMPI PUSH1 0x40 MLOAD PUSH3 0x461BCD PUSH1 0xE5 SHL DUP2 MSTORE PUSH1 0x4 ADD PUSH2 0x1F7 SWAP1 PUSH2 0x7B5 JUMP JUMPDEST PUSH1 0x1 SLOAD PUSH1 0x2 SLOAD PUSH1 0x40 MLOAD PUSH1 0x1 PUSH1 0x1 PUSH1 0xA0 SHL SUB SWAP1 SWAP3 AND SWAP2 DUP2 ISZERO PUSH2 0x8FC MUL SWAP2 SWAP1 PUSH1 0x0 DUP2 DUP2 DUP2 DUP6 DUP9 DUP9 CALL SWAP4 POP POP POP POP ISZERO DUP1 ISZERO PUSH2 0x4C6 JUMPI RETURNDATASIZE PUSH1 0x0 DUP1 RETURNDATACOPY RETURNDATASIZE PUSH1 0x0 REVERT JUMPDEST POP PUSH1 0x0 SLOAD PUSH1 0x1 SLOAD PUSH1 0x2 SLOAD PUSH1 0x40 MLOAD PUSH32 0x508F3AFA87F72DCE865A2321107666B28AC822C23A8C0555FBEB3424CF3DE563 SWAP4 PUSH2 0x50D SWAP4 PUSH1 0x1 PUSH1 0x1 PUSH1 0xA0 SHL SUB SWAP2 DUP3 AND SWAP4 SWAP2 AND SWAP2 PUSH2 0x584 JUMP JUMPDEST PUSH1 0x40 MLOAD DUP1 SWAP2 SUB SWAP1 LOG1 PUSH2 0x29F PUSH1 0x1 DUP1 SLOAD PUSH1 0x1 PUSH1 0x1 PUSH1 0xA0 SHL SUB NOT AND SWAP1 SSTORE PUSH1 0x0 PUSH1 0x2 SSTORE PUSH1 0x3 DUP1 SLOAD PUSH2 0xFFFF NOT AND SWAP1 SSTORE JUMP JUMPDEST PUSH1 0x0 DUP1 PUSH1 0x40 DUP4 DUP6 SUB SLT ISZERO PUSH2 0x54C JUMPI DUP2 DUP3 REVERT JUMPDEST DUP3 CALLDATALOAD PUSH1 0x1 PUSH1 0x1 PUSH1 0xA0 SHL SUB DUP2 AND DUP2 EQ PUSH2 0x562 JUMPI DUP3 DUP4 REVERT JUMPDEST SWAP5 PUSH1 0x20 SWAP4 SWAP1 SWAP4 ADD CALLDATALOAD SWAP4 POP POP POP JUMP JUMPDEST PUSH1 0x1 PUSH1 0x1 PUSH1 0xA0 SHL SUB SWAP2 SWAP1 SWAP2 AND DUP2 MSTORE PUSH1 0x20 ADD SWAP1 JUMP JUMPDEST PUSH1 0x1 PUSH1 0x1 PUSH1 0xA0 SHL SUB SWAP4 DUP5 AND DUP2 MSTORE SWAP2 SWAP1 SWAP3 AND PUSH1 0x20 DUP3 ADD MSTORE PUSH1 0x40 DUP2 ADD SWAP2 SWAP1 SWAP2 MSTORE PUSH1 0x60 ADD SWAP1 JUMP JUMPDEST PUSH1 0x1 PUSH1 0x1 PUSH1 0xA0 SHL SUB SWAP3 SWAP1 SWAP3 AND DUP3 MSTORE PUSH1 0x20 DUP3 ADD MSTORE PUSH1 0x40 ADD SWAP1 JUMP JUMPDEST SWAP1 ISZERO ISZERO DUP2 MSTORE PUSH1 0x20 ADD SWAP1 JUMP JUMPDEST PUSH1 0x20 DUP1 DUP3 MSTORE PUSH1 0x1D SWAP1 DUP3 ADD MSTORE PUSH32 0x56616C6F72206465766520736572206D61696F7220717565207A65726F000000 PUSH1 0x40 DUP3 ADD MSTORE PUSH1 0x60 ADD SWAP1 JUMP JUMPDEST PUSH1 0x20 DUP1 DUP3 MSTORE PUSH1 0x2B SWAP1 DUP3 ADD MSTORE PUSH32 0x536F6D656E7465206F2076656E6465646F7220706F646520696E696369617220 PUSH1 0x40 DUP3 ADD MSTORE PUSH11 0x61207472616E736163616F PUSH1 0xA8 SHL PUSH1 0x60 DUP3 ADD MSTORE PUSH1 0x80 ADD SWAP1 JUMP JUMPDEST PUSH1 0x20 DUP1 DUP3 MSTORE PUSH1 0x1E SWAP1 DUP3 ADD MSTORE PUSH32 0x456E64657265636F20646F20636F6D707261646F7220696E76616C69646F0000 PUSH1 0x40 DUP3 ADD MSTORE PUSH1 0x60 ADD SWAP1 JUMP JUMPDEST PUSH1 0x20 DUP1 DUP3 MSTORE PUSH1 0x2B SWAP1 DUP3 ADD MSTORE PUSH32 0x536F6D656E7465206F2076656E6465646F7220706F6465206170726F76617220 PUSH1 0x40 DUP3 ADD MSTORE PUSH11 0x61207472616E736163616F PUSH1 0xA8 SHL PUSH1 0x60 DUP3 ADD MSTORE PUSH1 0x80 ADD SWAP1 JUMP JUMPDEST PUSH1 0x20 DUP1 DUP3 MSTORE PUSH1 0x2C SWAP1 DUP3 ADD MSTORE PUSH32 0x416D6261732061732070617274657320707265636973616D206170726F766172 PUSH1 0x40 DUP3 ADD MSTORE PUSH12 0x2061207472616E736163616F PUSH1 0xA0 SHL PUSH1 0x60 DUP3 ADD MSTORE PUSH1 0x80 ADD SWAP1 JUMP JUMPDEST PUSH1 0x20 DUP1 DUP3 MSTORE PUSH1 0x2E SWAP1 DUP3 ADD MSTORE PUSH32 0x536F6D656E7465206F20636F6D707261646F7220706F646520636F6E6669726D PUSH1 0x40 DUP3 ADD MSTORE PUSH14 0x61722061207472616E736163616F PUSH1 0x90 SHL PUSH1 0x60 DUP3 ADD MSTORE PUSH1 0x80 ADD SWAP1 JUMP JUMPDEST PUSH1 0x20 DUP1 DUP3 MSTORE PUSH1 0x2B SWAP1 DUP3 ADD MSTORE PUSH32 0x4F20636F6D707261646F722061696E6461206E616F20636F6E6669726D6F7520 PUSH1 0x40 DUP3 ADD MSTORE PUSH11 0x61207472616E736163616F PUSH1 0xA8 SHL PUSH1 0x60 DUP3 ADD MSTORE PUSH1 0x80 ADD SWAP1 JUMP JUMPDEST PUSH1 0x20 DUP1 DUP3 MSTORE PUSH1 0x2C SWAP1 DUP3 ADD MSTORE PUSH32 0x53616C646F20696E737566696369656E74652070617261207265616C697A6172 PUSH1 0x40 DUP3 ADD MSTORE PUSH12 0x2061207472616E736163616F PUSH1 0xA0 SHL PUSH1 0x60 DUP3 ADD MSTORE PUSH1 0x80 ADD SWAP1 JUMP JUMPDEST SWAP1 DUP2 MSTORE PUSH1 0x20 ADD SWAP1 JUMP INVALID LOG2 PUSH5 0x6970667358 0x22 SLT KECCAK256 0xCD SWAP11 0xAC 0xD7 EXTCODESIZE GT BYTE DUP1 0xC1 0x4A 0xB8 ADD SHL SUB 0xE6 CALLDATASIZE INVALID 0xE2 0x2E 0xB5 MSTORE DUP8 0x24 0xAE 0xE0 SGT SDIV 0xC6 0xC4 LOG0 DUP6 SWAP5 PUSH5 0x736F6C6343 STOP ADDMOD STOP STOP CALLER "},"methodIdentifiers":{"amount()":"aa8c217c","approveTransaction()":"33b7a674","buyer()":"7150d8ae","confirmTransaction()":"c7a6c454","getIsBuyerConfirmed()":"f5c5039b","getIsSellerApproved()":"30ebc2d1","initiateTransaction(address,uint256)":"c3fa3acf","isApprovedBySeller()":"e6fb768d","isBuyerConfirmed()":"f3f0f9a4","seller()":"08551a53"}}}}}