{
  "_format": "hh-sol-artifact-1",
  "contractName": "SoybeanTrade",
  "sourceName": "contracts/SoybeanTrade.sol",
  "abi": [
    {
      "inputs": [],
      "stateMutability": "nonpayable",
      "type": "constructor"
    },
    {
      "anonymous": false,
      "inputs": [
        {
          "indexed": false,
          "internalType": "address",
          "name": "approver",
          "type": "address"
        },
        {
          "indexed": false,
          "internalType": "uint256",
          "name": "amount",
          "type": "uint256"
        }
      ],
      "name": "TransactionApproved",
      "type": "event"
    },
    {
      "anonymous": false,
      "inputs": [
        {
          "indexed": false,
          "internalType": "address",
          "name": "seller",
          "type": "address"
        },
        {
          "indexed": false,
          "internalType": "address",
          "name": "buyer",
          "type": "address"
        },
        {
          "indexed": false,
          "internalType": "uint256",
          "name": "amount",
          "type": "uint256"
        }
      ],
      "name": "TransactionExecuted",
      "type": "event"
    },
    {
      "anonymous": false,
      "inputs": [
        {
          "indexed": false,
          "internalType": "address",
          "name": "seller",
          "type": "address"
        },
        {
          "indexed": false,
          "internalType": "address",
          "name": "buyer",
          "type": "address"
        },
        {
          "indexed": false,
          "internalType": "uint256",
          "name": "amount",
          "type": "uint256"
        }
      ],
      "name": "TransactionInitiated",
      "type": "event"
    },
    {
      "inputs": [],
      "name": "amount",
      "outputs": [
        {
          "internalType": "uint256",
          "name": "",
          "type": "uint256"
        }
      ],
      "stateMutability": "view",
      "type": "function"
    },
    {
      "inputs": [],
      "name": "approveTransaction",
      "outputs": [],
      "stateMutability": "nonpayable",
      "type": "function"
    },
    {
      "inputs": [],
      "name": "buyer",
      "outputs": [
        {
          "internalType": "address",
          "name": "",
          "type": "address"
        }
      ],
      "stateMutability": "view",
      "type": "function"
    },
    {
      "inputs": [],
      "name": "confirmTransaction",
      "outputs": [],
      "stateMutability": "nonpayable",
      "type": "function"
    },
    {
      "inputs": [],
      "name": "getIsBuyerConfirmed",
      "outputs": [
        {
          "internalType": "bool",
          "name": "",
          "type": "bool"
        }
      ],
      "stateMutability": "view",
      "type": "function"
    },
    {
      "inputs": [],
      "name": "getIsSellerApproved",
      "outputs": [
        {
          "internalType": "bool",
          "name": "",
          "type": "bool"
        }
      ],
      "stateMutability": "view",
      "type": "function"
    },
    {
      "inputs": [
        {
          "internalType": "address",
          "name": "_buyer",
          "type": "address"
        },
        {
          "internalType": "uint256",
          "name": "_amount",
          "type": "uint256"
        }
      ],
      "name": "initiateTransaction",
      "outputs": [],
      "stateMutability": "nonpayable",
      "type": "function"
    },
    {
      "inputs": [],
      "name": "isApprovedBySeller",
      "outputs": [
        {
          "internalType": "bool",
          "name": "",
          "type": "bool"
        }
      ],
      "stateMutability": "view",
      "type": "function"
    },
    {
      "inputs": [],
      "name": "isBuyerConfirmed",
      "outputs": [
        {
          "internalType": "bool",
          "name": "",
          "type": "bool"
        }
      ],
      "stateMutability": "view",
      "type": "function"
    },
    {
      "inputs": [],
      "name": "seller",
      "outputs": [
        {
          "internalType": "address",
          "name": "",
          "type": "address"
        }
      ],
      "stateMutability": "view",
      "type": "function"
    },
    {
      "stateMutability": "payable",
      "type": "receive"
    }
  ],
  "bytecode": "0x60806040526003805461ffff1916905534801561001b57600080fd5b50600080546001600160a01b031916331790556108408061003d6000396000f3fe6080604052600436106100955760003560e01c8063c3fa3acf11610059578063c3fa3acf1461013c578063c7a6c4541461015c578063e6fb768d14610171578063f3f0f9a414610186578063f5c5039b1461019b5761009c565b806308551a53146100a157806330ebc2d1146100cc57806333b7a674146100ee5780637150d8ae14610105578063aa8c217c1461011a5761009c565b3661009c57005b600080fd5b3480156100ad57600080fd5b506100b66101b0565b6040516100c39190610570565b60405180910390f35b3480156100d857600080fd5b506100e16101bf565b6040516100c391906105c1565b3480156100fa57600080fd5b506101036101cd565b005b34801561011157600080fd5b506100b66102a1565b34801561012657600080fd5b5061012f6102b0565b6040516100c39190610801565b34801561014857600080fd5b5061010361015736600461053a565b6102b6565b34801561016857600080fd5b50610103610391565b34801561017d57600080fd5b506100e1610413565b34801561019257600080fd5b506100e1610421565b3480156101a757600080fd5b506100e161042a565b6000546001600160a01b031681565b600354610100900460ff1690565b6000546001600160a01b031633146102005760405162461bcd60e51b81526004016101f790610685565b60405180910390fd5b60035460ff166102225760405162461bcd60e51b81526004016101f79061076a565b6003805461ff0019166101001790556000546002546040517f7b19c08b12f940ea76949b68d355070966056a862ad2c1aa6676ecbcc9538a6192610271926001600160a01b03909116916105a8565b60405180910390a160035460ff1680156102925750600354610100900460ff165b1561029f5761029f610433565b565b6001546001600160a01b031681565b60025481565b6000546001600160a01b031633146102e05760405162461bcd60e51b81526004016101f790610603565b6001600160a01b0382166103065760405162461bcd60e51b81526004016101f79061064e565b600081116103265760405162461bcd60e51b81526004016101f7906105cc565b600180546001600160a01b0319166001600160a01b03848116919091179182905560028390556000546040517f09ff2302f4abda8e8643155ee4bda3d566a5eacf743348474c69bff314d9a10093610385939283169216908590610584565b60405180910390a15050565b6001546001600160a01b031633146103bb5760405162461bcd60e51b81526004016101f79061071c565b6003805460ff19166001908117909155546002546040517f7b19c08b12f940ea76949b68d355070966056a862ad2c1aa6676ecbcc9538a6192610409926001600160a01b03909116916105a8565b60405180910390a1565b600354610100900460ff1681565b60035460ff1681565b60035460ff1690565b60035460ff16801561044c5750600354610100900460ff165b6104685760405162461bcd60e51b81526004016101f7906106d0565b60025447101561048a5760405162461bcd60e51b81526004016101f7906107b5565b6001546002546040516001600160a01b039092169181156108fc0291906000818181858888f193505050501580156104c6573d6000803e3d6000fd5b506000546001546002546040517f508f3afa87f72dce865a2321107666b28ac822c23a8c0555fbeb3424cf3de5639361050d936001600160a01b0391821693911691610584565b60405180910390a161029f600180546001600160a01b031916905560006002556003805461ffff19169055565b6000806040838503121561054c578182fd5b82356001600160a01b0381168114610562578283fd5b946020939093013593505050565b6001600160a01b0391909116815260200190565b6001600160a01b039384168152919092166020820152604081019190915260600190565b6001600160a01b03929092168252602082015260400190565b901515815260200190565b6020808252601d908201527f56616c6f72206465766520736572206d61696f7220717565207a65726f000000604082015260600190565b6020808252602b908201527f536f6d656e7465206f2076656e6465646f7220706f646520696e69636961722060408201526a61207472616e736163616f60a81b606082015260800190565b6020808252601e908201527f456e64657265636f20646f20636f6d707261646f7220696e76616c69646f0000604082015260600190565b6020808252602b908201527f536f6d656e7465206f2076656e6465646f7220706f6465206170726f7661722060408201526a61207472616e736163616f60a81b606082015260800190565b6020808252602c908201527f416d6261732061732070617274657320707265636973616d206170726f76617260408201526b2061207472616e736163616f60a01b606082015260800190565b6020808252602e908201527f536f6d656e7465206f20636f6d707261646f7220706f646520636f6e6669726d60408201526d61722061207472616e736163616f60901b606082015260800190565b6020808252602b908201527f4f20636f6d707261646f722061696e6461206e616f20636f6e6669726d6f752060408201526a61207472616e736163616f60a81b606082015260800190565b6020808252602c908201527f53616c646f20696e737566696369656e74652070617261207265616c697a617260408201526b2061207472616e736163616f60a01b606082015260800190565b9081526020019056fea2646970667358221220cd9aacd73b111a80c14ab8011b03e636fee22eb5528724aee01305c6c4a0859464736f6c63430008000033",
  "linkReferences": {},
  "deployedLinkReferences": {}
}